:020000040800F2
:10000000D0040020C1010008EF200008891D00086D
:10001000ED20000825080008E9290008000000007C
:10002000000000000000000000000000E9240008BB
:10003000270800080000000011210008EB24000838
:10004000DB010008DB010008DB010008DB01000820
:10005000DB010008DB010008DB010008DB01000810
:10006000DB010008DB010008DB010008DB01000800
:10007000DB010008DB010008DB010008DB010008F0
:10008000DB010008DB010008DB010008DB010008E0
:10009000DB010008DB010008DB010008DB010008D0
:1000A000DB010008DB010008DB010008DB010008C0
:1000B000DB010008DB010008DB010008DB010008B0
:1000C000DB010008DB010008DB010008DB010008A0
:1000D000DB010008DB010008DB010008DB01000890
:1000E000DB010008DB010008DB010008DB01000880
:1000F000DB010008DB010008DB010008DB01000870
:10010000DB010008DB010008DB010008DB0100085F
:10011000DB010008DB010008DB010008DB0100084F
:10012000DB010008DB010008DB010008DB0100083F
:10013000DB010008DB010008DB010008DB0100082F
:10014000DB010008DB010008DB010008DB0100081F
:10015000DB010008DB010008DB010008DB0100080F
:10016000DB010008DB010008DB010008DB010008FF
:10017000DB010008DB010008DB01000800000000D3
:10018000DB010008DB010008DB010008DB010008DF
:10019000DB010008DB010008DB010008DB010008CF
:1001A000DB010008DB010008DB010008DFF80CD0F0
:1001B00000F026FB0048004705330008D00400206B
:1001C0000648804706480047FEE7FEE7FEE7FEE7F1
:1001D000FEE7FEE7FEE7FEE7FEE7FEE7852500080F
:1001E000AD0100082DE9F05F0546002092469B46D0
:1001F00088460646814640241BE02846414647463D
:10020000224600F0A8F953465A46C01A914110D32D
:1002100011461846224600F08FF92D1A67EB0108A7
:100220004F4622460120002100F086F917EB000915
:100230004E41201EA4F10104DFDC484631462A4627
:10024000434600F000B830BCBDE8C09F2DE9FE4F2A
:10025000804681EA0300C00F0C46009021F0004167
:1002600023F00045B8EB0200A94105D240462146E3
:1002700090461C460B46024623F00040104347D0F0
:10028000270DC7F30A00C3F30A510290401A0190E8
:1002900040286BDAC3F3130040F4801B00989246A9
:1002A00020B10023D2EB030A63EB0B0B01985946F4
:1002B000C0F14002504600F03FF906460D46504658
:1002C0005946019A00F057F910EB080061410024EB
:1002D00087EA115284EAE7731A4340D0009A62B366
:1002E000019A012A4FEA075215DC001B61EB02015B
:1002F0004FF0004202EA0752CDE90042001C41F5EE
:10030000801132462B4600F08EF903B000F045B85C
:1003100040462146F9E7001B61EB0201001C41F554
:10032000801300185B412018A2F5001747EB03016A
:1003300040EAD570B6196D4111E06D084FEA3606F6
:1003400045EAC0754FEA0752001B61EB0201001C31
:1003500041F5801149084FEA3000001951413246F9
:100360002B4603B000F01CB800F04EB900980122F3
:1003700040000023D0EB020263EBE07300982146BB
:100380004FEAE074B8EB000061EB0401E9E783F0A9
:1003900000435BE781F0004158E730BCBDE8C08F07
:1003A00030BCBDE8C04FFFF7DFBF2DE9FE4F81EA4B
:1003B000030404F0004421F0004100944FF0000BCE
:1003C00023F0004350EA01045ED052EA03045BD0FC
:1003D000C3F30A54C1F30A552C44A4F2F334019434
:1003E000A0FB0254C1F3130141F48011C3F31303C2
:1003F00043F4801301FB024400FB034E840A970A76
:1004000044EA815447EA8357A4FB076802958D0AA2
:1004100005FB07854FEA932C04FB0C542705029D2E
:100420004FEA065847EA1637B5EB08056EEB070C9E
:10043000870E920E47EA811742EA8312A7FB020158
:10044000B6EB0B0164EB00042B0D43EA0C335E1892
:1004500044EB1C50DA465146E7FB0201C5F3130496
:100460004FEA0B3343EA14534FEA0432019C43EA48
:100470000603A4F10C040294009CCDE900B400F042
:10048000D2F803B000F003B800200146F9E730BC11
:10049000BDE8C08F0EB540F2334102910021CDE995
:1004A00000110A460B4600F0BEF803B000BD00F094
:1004B000004230F000400AD0C10D01F56071C0F378
:1004C000160042EA0151C20840071143704700205C
:1004D0000146704701F0004330B421F0004150EA7A
:1004E000010206D00A0DA2F56072C1F31301002AC1
:1004F00002DC30BC00207047440F44EAC104C10054
:10050000E01830BC00EBC25000F047B830B50B46E5
:10051000014600202022012409E021FA02F59D4233
:1005200005D303FA02F5491B04FA02F52844151E07
:10053000A2F10102F1DC30BD202A04DB203A00FAEE
:1005400002F1002070479140C2F1200320FA03F32A
:10055000194390407047202A04DB203A21FA02F028
:100560000021704721FA02F3D040C2F120029140ED
:10057000084319467047202A06DBCB17203A41FA78
:1005800002F043EAE07306E041FA02F3D040C2F120
:10059000200291400843194670470029A8BF7047C0
:1005A000401C490008BF20F00100704710B4B0FAA9
:1005B00080FC00FA0CF050EA010404BF10BC704744
:1005C00049B1CCF1200421FA04F411FA0CF118BF5E
:1005D000012121430843A3EB0C01CB1D4FEA00612D
:1005E0004FEA102042BF002010BC704700EBC35000
:1005F00010440029A4BF10BC7047401C490008BF2C
:1006000020F0010010BC704710B5141E73F10004F7
:1006100008DA401C41F1000192185B411A4301D1F4
:1006200020F0010010BD2DE9F04D92469B4611B11E
:10063000B1FA81F202E0B0FA80F220329046FFF780
:100640007BFF04460F4640EA0A0041EA0B0153468D
:100650005A46084313D0114653EA010019D0C8F195
:1006600040025046FFF777FF05460E465046594672
:100670004246FFF761FF084305D0012004E0204611
:100680003946BDE8F08D0020054346EAE0762C436C
:1006900037430A986305E40AA0EB08000022FD0A2C
:1006A00044EA47540A3002D500200146E9E7010533
:1006B00010196941DDE9084500196941BDE8F04DAF
:1006C000A2E72DE9F04D81EA030404F0004B21F08C
:1006D000004514464FF0000A23F0004150EA05029D
:1006E00020D054EA01021DD0C5F30A570246C5F3D3
:1006F0001303C1F31300C1F30A5640F4801543F409
:100700008013A7EB0608101BD64608F2FD3873EBE2
:10071000050002D308F1010801E092185B41B8F12D
:10072000000F03DA00200146BDE8F08D00204FF4F1
:100730008011064684460EE0171B73EB050705D3B0
:10074000121B63EB050306434CEA010C49084FEA10
:10075000300092185B4150EA0107EDD152EA0300E4
:1007600012D082EA040083EA0501084305D0101B79
:10077000AB4106D20122002306E000224FF00043E5
:1007800002E06FF0010253101AEB06004CEB085127
:1007900010EB0A0041EB0B01BDE8F04DFFF734BF51
:1007A000C1F30A52C1F3130140F2FF3341F4801147
:1007B0009A4202DA00200146704740F233439A42DF
:1007C000A2F2334202DC5242FFF7C5BEFFF7B4BECD
:1007D00030B5041E71F1000404DB4FF000444042C8
:1007E00064EB0101141E73F1000405DB1C464FF09D
:1007F0000043524263EB0403994208BF904230BD6C
:10080000064C074D06E0E06840F0010394E807005D
:1008100098471034AC42F6D3FFF7CCFC30340008D4
:1008200050340008FEE77047FEE7000010B5E521F0
:100830000C4801F0CFFB03220B490A4801F0F4FAFF
:10084000094C02212046A27801F030FE6078217820
:1008500000EB012080B201F0EDFD00202080A070AF
:1008600010BD0000840000200400002010B5E3212A
:100870000C4801F0AFFB03220B490A4801F0D4FAFF
:10088000094C02212046A27801F010FE6078217800
:1008900000EB012080B201F0EBFD00202080A07071
:1008A00010BD000084000020040000202DE9F84F56
:1008B000DFF888B100234FF0010C4FF0030A4FF02E
:1008C0000F090BF1040EB1E00CFA03F632406FD0C1
:1008D0004C68022C01D0122C11D1DC0800EB8407EB
:1008E0003C6A5D07ED0E09FA05F824EA0804D1F820
:1008F000108008FA05F848EA0408C7F8208007685D
:100900005D0091F804800AFA05F408F00308A74393
:1009100008FA05F848EA0708C0F800804F68012F78
:1009200005D0022F03D0112F01D0122F10D1D0F8F3
:100930000880CF6828EA0408AF4047EA08078760C4
:100940004768B7430E79C6F300169E403E434660A3
:10095000C668A6438C68AC403443C4604C68E4006D
:1009600063D5374C256E45F001052566246E23F0CE
:10097000030504F001040094324C2F19BD689C0754
:10098000260F09FA06F4A543B0F1904F04D02E4C7F
:10099000A04203D1012421E000241FE02B4CA042FF
:1009A00001D102241AE02A4CA04202D1032415E00E
:1009B0003BE0284CA04201D104240FE0264CA04289
:1009C00001D105240AE0254CA04201D1062405E00E
:1009D000234CA04201D1072400E00824B4402C435A
:1009E000BC60DBF800405D464E689443F60300D5DA
:1009F00014432C60DEF8004075464E689443B603FD
:100A000000D514432C600D4D08352C684E68944376
:100A1000F60200D514432C60084D0C352C684E6846
:100A20009443B60200D514432C605B1C0A6832FA6A
:100A300003F47FF449AF00F015B800000004014052
:100A40000010024000000140000400480008004877
:100A5000000C00480010004800140048001800482E
:100A6000001C004818BCBDE8E08F0AB181617047E6
:100A7000816270470148006870470000080000204C
:100A800090F84120202A24D190F84020012A20D03B
:100A9000012280F84020242280F841200268136857
:100AA00023F0010313600268136823F4805313607A
:100AB000026813680B43136001680A6842F0010280
:100AC0000A60202180F84110002180F8401008467B
:100AD00070470220704790F84120202A22D190F8D8
:100AE0004020012A1ED0012280F84020242280F8D4
:100AF00041200268136823F0010313600268136841
:100B000023F4706343EA0121116001680A6842F02E
:100B100001020A60202180F84110002180F8401075
:100B2000084670470220704770B5040004D094F85E
:100B30004100002510B106E0012070BD84F840504E
:100B4000204600F081F9242084F8410020680168E3
:100B500021F0010101606068216820F07060086187
:100B60002068816821F400418160E0680128A06864
:100B700007D040F4044021688860E068022803D070
:100B800006E040F40040F6E721684FF4006048605A
:100B900020684168114A114341602068C16821F40E
:100BA0000041C160D4E904010843A16940EA012081
:100BB0002168C860D4E907010843216808602068FB
:100BC000016841F0010101606564202084F8410062
:100BD000256384F84250002070BD000000800002B0
:100BE0002DE9F84F044690F84100DDF828A01F4693
:100BF00090468B4620287DD194F84000012879D07A
:100C0000012084F84000FFF735FF064601220090DE
:100C10001923D103204601F023F948BB222084F890
:100C20004100102084F8420000256564C4F8248047
:100C300067856563618DFF274FF410504FF0807812
:100C40004FF00079FF2903D927853A46009033E019
:100C5000618D2185009034E05946204601F0EEF880
:100C600033E000BF01F026F918B1606C042848D0C9
:100C700019E02068416A606A421C62620170208D3E
:100C8000401E0004000C2085618DA1F101016185E9
:100C90001BD1608DC8B153460022802120460096AA
:100CA00001F0DEF810B1032000F032B8608DFF28AB
:100CB00004D927853A4600954346CDE7608D2085C7
:100CC000009594F828204B46C6E7608D32460028F0
:100CD00051462046C6D101F02DF90028C5D1216822
:100CE0002020C86121684A68084B1A404A6084F88D
:100CF000410000E007E084F8425084F840500020B2
:100D0000D2E70120D0E70220CEE7000000E800FE95
:100D100018BCBDE8E08F00002DE9F84F044690F8BC
:100D20004100DDF828A01F4690468B4620287CD144
:100D300094F8400001287FD0012084F84000FFF79C
:100D400099FE0646012200901923D103204601F0A6
:100D500087F838BB212084F84100102084F8420035
:100D600000256564C4F8248067856563618D400251
:100D7000FF274FF080784FF00079FF2903D92785AE
:100D80003A46009031E0618D2185009032E059466D
:100D9000204601F053F831E001F0F3F818B1606C2F
:100DA000042847D018E0606A411C6162216800781D
:100DB0008862608D401E6085208D401E0004000CFE
:100DC00020851BD1608DC8B153460022802120466A
:100DD000009601F045F810B1032000F031B8608DA5
:100DE000FF2804D927853A4600954346CFE7608D12
:100DF0002085009594F828204B46C8E7608D324640
:100E0000002851462046C7D101F094F80028C6D1E9
:100E100020682021C16120684368084A134043606C
:100E200084F8411084F8425000E005E084F8405016
:100E30000020D2E70120D0E70220CEE700E800FE44
:100E400018BCBDE8E08F000000B500680D4987B010
:100E5000884215D103201221CDE900010121CDE9FD
:100E600002100420049069460748FFF71FFD074859
:100E7000816D41F480018165806D00F480000590F2
:100E800007B000BD005800400014004800100240A8
:100E900002480168491C01607047000008000020FA
:100EA00010B5032000F07CF8002000F005F800F0F9
:100EB00017F8002010BD000010B5044607484FF495
:100EC0007A710068B0FBF1F000F091FE002221463B
:100ED000501E00F045F8002010BD00000C0000205E
:100EE0001E4808B5016E41F001010166016E01F076
:100EF00001010091816D41F080518165806D00F0AC
:100F000080500090032000F04BF8002211466FF053
:100F10000B0000F025F8002211466FF00A0000F0E7
:100F20001FF8002211466FF0090000F019F80022A6
:100F30001146501F00F014F800221146101F00F057
:100F40000FF800221146901E00F00AF80022BDE8BA
:100F500008401146501E00F003B800000010024087
:100F6000F0B40E4B1B680C46C3F30223C3F1070514
:100F7000042D00D90425191D072901D2002300E002
:100F8000DB1E012606FA05F1491E214099409E40CC
:100F9000761E16403143F0BC01F0AAB80CED00E01B
:100FA000064900F0070208684FF6FF03184040EAC0
:100FB0000220034A10430860704700000CED00E077
:100FC0000000FA051549B0F5007F0868C0F341201C
:100FD00009D0022805D0086820F4C06040F4806081
:100FE0000860002070470128FBD0086820F4C0602A
:100FF00040F4007008600A480A4A0068B0FBF2F04A
:101000003222504300E0401E10B14A695205FAD422
:1010100048694005E5D50320704700000070004096
:101020000C00002040420F000248416841F400716A
:1010300041607047007000400248006800F4C060E2
:1010400070470000007000402DE9F84F044600276B
:101050000088EC4D3E46010504F1200B1DD5A06E25
:1010600078B1B0F5800F11D0B0F5000F04D0B0F515
:10107000400F22D001270FE0E86840F48030E8609C
:101080001BE00021201D01F045F803E00021584637
:1010900001F0F4F8070010D03E462088C00426D5A1
:1010A000E06EC0B1B0F1807F1AD0B0F1007F0DD0FA
:1010B000B0F1407F19D0012718E0D5F88800A16E63
:1010C00020F440000843C5F88800E6E7E86840F4EB
:1010D0008030E86009E00021201D01F01BF803E0EA
:1010E0000021584601F0CAF80746F7B13E4620688D
:1010F00080033AD5A86D4FF00008C00009D4A86D50
:1011000040F08050A865A86D4FF0010800F08050B5
:101110000090DFF8F4A2DAF8001041F48071CAF808
:101120000010FFF7A7FC814610E0D5F88800E16EBB
:1011300020F040700843C5F88800D8E7FFF79AFC14
:10114000A0EB0900022801D9032705E0DAF8000026
:10115000C005F3D5002F7CD04FEA0706B8F1000F89
:1011600003D0A86D20F08050A8652078C00707D074
:10117000D5F88800A16B20F003000843C5F888006B
:101180002078800707D5D5F88800E16B20F00C00A7
:101190000843C5F888002078400707D5D5F88800AF
:1011A000216C20F030000843C5F888002078000743
:1011B00007D5D5F88800616C20F0C0000843C5F859
:1011C00088002078C00607D5D5F88800A16C20F4E7
:1011D00040700843C5F888002078800607D5D5F808
:1011E0008800E16C20F440600843C5F8880020883E
:1011F000800507D5D5F88800216E20F440200843EB
:10120000C5F888002088400507D5D5F88800616EAC
:1012100020F440100843C5F888002078400607D520
:10122000D5F88800216D20F440500843C5F88800A7
:101230002078000607D5D5F88800616D20F440407D
:101240000843C5F888002088C00509D5D5F888006E
:1012500000E027E0A16D20F440300843C5F8880085
:101260002068C00207D5D5F89C00E16D20F003008E
:101270000843C5F89C0020884FF0006780044FF0B9
:10128000806850D5D5F88800216F20F04060084371
:10129000C5F88800206FB8423DD1E86840F480105E
:1012A000E86040E0D5F8900010F4407015D0D4F814
:1012B0008810814211D0D5F89000D5F8901020F414
:1012C000407041F48031C5F89010D5F8901021F4A9
:1012D0008031C5F89010C5F89000C00711D0FFF715
:1012E000C9FB074641F2883907E000BFFFF7C2FBA0
:1012F000C11B494501D9032630E7D5F89000800786
:10130000F4D5D5F89000D4F8881020F44070084344
:10131000C5F8900022E7404505D10121201D00F0CD
:10132000F9FE00B106462068000317D5D5F88800FD
:10133000616F20F040600843C5F88800606FB842D4
:1013400004D1E86840F48010E86007E0404505D12A
:101350000121201D00F0DEFE00B10646206840039A
:1013600017D5D5F88800A16F20F040600843C5F874
:101370008800A06FB84204D1E86840F48010E860AB
:1013800007E0404505D10121201D00F0C3FE00B15A
:101390000646208840041AD5D5F88800E16F20F071
:1013A00040500843C5F88800E06FB0F1805F03D07B
:1013B000B0F1005F05D00AE00221201D00F0AAFE76
:1013C00003E00221584600F059FF00B1064620888C
:1013D000000408D5D5F88800D4F8801020F08040AB
:1013E0000843C5F888002068C00307D555F8880F62
:1013F000D4F8841020F0004008432860304600F004
:1014000005B80000001002400070004018BCBDE8A4
:10141000E08F00002DE9F047DFF8688105460E46B1
:10142000D8F8000000F00700B0420CD2D8F8001045
:1014300021F007013143C8F80010D8F8000000F08F
:101440000700B04274D128784F4C800705D5A068BA
:10145000A96820F0F0000843A0602878C00756D0A3
:101460006868022818D0032819D02168D0B149052E
:1014700000295DDAA16821F003010143A160FFF7B3
:10148000F9FA6968074641F28830022912D0032927
:101490001ED0814649B335E021688903E8E7216819
:1014A0008901E5E78907E3E7FFF7E4FAC11B49454E
:1014B00001D924E08146A068C0F381000228F3D15D
:1014C00025E000BFFFF7D6FAC11B494501D916E058
:1014D0008146A068C0F381000328F3D117E000BF64
:1014E000FFF7C8FAC11B494509D8A06810F00C0FD6
:1014F000F6D10CE0FFF7BEFAC11B494502D9032023
:10150000BDE8F087A068C0F381000128F2D1D8F8C7
:101510000010404601F00701B1420BD9016821F0EB
:10152000070131430160006800F00700B04201D0BC
:101530000120E5E72878400705D5A068E96820F490
:10154000E0600843A0602878000706D5A0682969F4
:1015500020F4605040EAC100A06000F051F8A1689A
:10156000F02292FAA2F201F0F001B2FA82F2D14036
:10157000064A515CC840064908600020FFF79CFC01
:101580000020BDE70020024000100240E8330008C0
:101590000C00002001480068704700000C0000208B
:1015A00008480949006889684FF4E06292FAA2F29B
:1015B00001F4E061B2FA82F2D140044A515CC840C1
:1015C000704700000C000020001002402834000882
:1015D00008480949006889684FF4605292FAA2F2FB
:1015E00001F46051B2FA82F2D140044A515CC84021
:1015F000704700000C000020001002402834000852
:1016000070B53B49002318468A683A4C12F00C0F1B
:101610004FEA640514D08A68C2F38102032A04D118
:10162000CA6802F00302012A0AD08A68C2F3810262
:10163000012A21D08A68C2F38102022A1ED01EE04C
:101640000A68120706D4D1F894204FF4706302F4AC
:10165000706203E00A68F02302F0F00293FAA3F349
:10166000B3FA83F3DA40244B53F822308A6812F03D
:101670000C0F04D1184602E0204600E028468A6894
:10168000C2F38102032A31D1C868CA6800F003009E
:10169000702696FAA6F602F07002B6FA86F6F240C6
:1016A000521C4FF4FE46022804D0032805D0B3FB99
:1016B000F2F004E0B4FBF2F001E0B5FBF2F0CA682E
:1016C00096FAA6F302F4FE42B3FA83F3DA40C9684D
:1016D00050434FF0C06292FAA2F201F0C061B2FA38
:1016E00082F2D140491C4900B0FBF1F070BD00000E
:1016F000001002400024F400F83300082DE9F843FC
:1017000004460078FE4DC00663D5A86810F00C0FA3
:101710000AD0A0690028286878D040F0010028602D
:10172000FFF7A8F906465AE02868800702D5A069A5
:1017300000286AD0216A28684FF0F006000703D518
:10174000286800F0F00003E0D5F8940006EA1010D5
:10175000814216D9084600F02FFE002855D128688E
:1017600040F0080028602868216A20F0F000084353
:1017700028606868E16920F47F4040EA01206860E1
:1017800015E0286840F0080028602868216A20F0E9
:10179000F000084328606868E16920F47F4040EA6F
:1017A00001206860206A00F007FE0028D6D1FFF70C
:1017B00027FFA96896FAA6F201F0F001B2FA82F2C8
:1017C000D140D04A515CC840CF4908600020FFF7A3
:1017D00073FB2BE0FFF74EF9801B02287ED82868A8
:1017E0008007F7D5286840F0080028602868216A3B
:1017F00020F0F000084328606868E16920F47F4029
:1018000040EA0120686011E000E0B7E020F001004C
:101810002860FFF72FF9064605E000BFFFF72AF919
:10182000801B0228DAD828688007F7D42078C00700
:1018300048D0A868C0F3810002281DD0A868C0F372
:101840008100032803D1E868C043800714D0606892
:10185000B0F5803F17D0B0F5A02F286817D020F43E
:1018600080302860286820F4802028606068E0B11B
:10187000FFF700F9064614E02868800322D5606867
:1018800000287BD01EE0286840F48030EDE740F46B
:1018900080202860F7E700BFFFF7ECF8801B642882
:1018A0009CD828688003F7D50CE0FFF7E3F80646DC
:1018B00005E000BFFFF7DEF8801B64288ED828689B
:1018C0008003F7D42078800748D5A8684FF0FE47FA
:1018D000C0F38100012816D0A86800E0D4E0C0F36E
:1018E0008100032804D1E86800F0030002280AD030
:1018F000E0680028286821D040F480702860FFF755
:10190000B9F806460BE0286840050BD5E0680028CA
:10191000B7D007E0FFF7AEF8801B0228C0D82868D0
:101920004005F7D5686897FAA7F22169B2FA82F202
:1019300020F0FE409140084368600FE020F4807082
:101940002860FFF797F8064605E000BFFFF792F81A
:10195000801B0228A4D828684005F7D42078000707
:1019600029D560690028D5F8940013D040F0010013
:10197000C5F89400FFF77EF8064606E023E100BFB5
:10198000FFF778F8801B02287ED8D5F894008007EE
:10199000F6D510E020F00100C5F89400FFF76AF8D2
:1019A000064604E0FFF766F8801B02286CD8D5F8DD
:1019B00094008007F6D42078400761D5A86D0026F2
:1019C000C00008D4A86D40F08050A865A86D01261D
:1019D00000F0805000904D480168C90511D401689D
:1019E000804641F480710160FFF744F8074604E047
:1019F000FFF740F8C01B022846D8D8F80000C00501
:101A0000F6D5A068012815D00528D5F8900016D085
:101A100020F00100C5F89000D5F8900020F00400F7
:101A2000C5F89000A06841F28838B8B1FFF722F8F5
:101A300007460EE0D5F8900040F00100F0E740F0D6
:101A40000400C5F89000F5E7FFF714F8C11B414505
:101A50001AD8D5F890008007F6D50CE0FFF70AF801
:101A6000074604E0FFF706F8C11B41450CD8D5F83E
:101A700090008007F6D41EB1A86D20F08050A865B4
:101A80002078800629D500E084E0606A0028D5F837
:101A9000980011D040F00100C5F89800FEF7EAFF69
:101AA000064604E0FEF7E6FF801B022872D8D5F850
:101AB00098008007F6D510E020F00100C5F89800E6
:101AC000FEF7D8FF064604E0FEF7D4FF801B02288D
:101AD00071D8D5F898008007F6D4A06AF0B3A96849
:101AE000C1F3810103296FD00228286820F080709B
:101AF00028601AD0286800010FD42868800007E009
:101B000000100240E83300080C0000200070004084
:101B100003D4E86820F00300E860E8682B49084037
:101B2000E860FEF7A7FF044648E0FEF7A3FF06467D
:101B300005E000BFFEF79EFF801B02283BD8286807
:101B40008001F7D4206B54F82C1F00011038084393
:101B5000218A1F4A490802EB415100E031E0A268A6
:101B600041EA02210843217D4FF07E42490802EB01
:101B700041610843217B40EAC160E860286840F089
:101B800080702860E86840F08070E860FEF772FFBF
:101B9000044606E00FE000BFFEF76CFF001B0228C2
:101BA00009D828688001F7D50BE000BFFEF762FF77
:101BB000001B022802D90320BDE8F88328688001B1
:101BC000F4D40020F8E7FFE70120F5E7FFFFEEFE81
:101BD0000000E0FF4FF0E0210428086903D020F066
:101BE00004000861704740F00400FAE7704710B540
:101BF000401EB0F1807F01D3012010BD4FF0E024E2
:101C000060610F21601700F073FA0020A0610720C7
:101C10002061002010BD10B5FFF7E8FF10BD10B522
:101C2000040003D094F8690010B107E0012010BD52
:101C3000002084F86800204600F026F8242084F86C
:101C400069002068016821F001010160204600F070
:101C50004DFD0128EBD0606A10B1204600F0B4FCC5
:101C60002068416821F4904141602068816821F03A
:101C70002A0181602068016841F00101016020466D
:101C8000BDE8104000F004BD00B500680E4987B003
:101C9000884217D10D48C16D41F00101C165C06D89
:101CA000694600F0010005904FF4C07000900220DA
:101CB0000190012002900320039008200490044822
:101CC000FEF7F4FD07B000BD0080004000100240A8
:101CD000001800482DE9F843044690F869001F46B3
:101CE00016460D4620284DD1CDB1C6B194F86800F6
:101CF000012847D0012084F868004FF00008C4F89C
:101D00006C80212084F869005034FEF7B3FE24F87B
:101D1000026B814624F852694FF4805618E0012086
:101D2000BDE8F883B4F85200401EA4F852004B46B8
:101D3000002280212046009700F024FEA0B9A06870
:101D4000B04201D1206988B115F8010B21680885DE
:101D5000B4F852000028E5D14B460022402120462D
:101D6000009700F00FFE30B10320D9E735F8020BE1
:101D7000C0F30800EAE7202084F8690084F868804E
:101D80000020CDE70220CBE7FEE701688A69D24355
:101D9000920701D400228A6200688169C943C90799
:101DA00003D0816941F00101816170472DE9F04163
:101DB0000446006890460E468069C043C0062ED493
:101DC0000025202720688069C043800611D5701C3B
:101DD000F8D02EB1FEF74EFEA0EB0800B042F1D9CC
:101DE00084F8417084F8425084F840500320BDE8E4
:101DF000F08121681020C8612068C7612046FFF784
:101E0000C4FF54F8440B4168064A11404160042065
:101E100044F820096777A57725770120E7E70020B8
:101E2000E5E7000000E800FE08B54FF6FF730093F9
:101E300013460A468021FEF7D3FE08BD70B505683B
:101E4000049E6C6805480440C1F3090040EA024062
:101E5000184330432043686070BD0000009800FCC8
:101E60002DE9F0411D4617460E460446DDF8188060
:101E700013E0681C11D02DB1FEF7FCFDA0EB0800AB
:101E8000A8420AD9202084F84100002084F84200AA
:101E900084F840000320BDE8F0812068806936EABC
:101EA000000004D00020B842E3D00020F3E7012076
:101EB000F9E700002DE9F041002690460F46044660
:101EC00020252DE0424639462046FFF76FFF10B12E
:101ED0000120BDE8F08120688069C04380060ED4EF
:101EE0002068C56120684168114A114041606664FC
:101EF00084F8415084F8426084F84060E8E72FB1EC
:101F0000FEF7B8FDA0EB0800B84209D954F8440F19
:101F100040F0200044F80409657026700320D8E7DB
:101F200020688069C0434007CCD40020D1E700007E
:101F300000E800FE70B516460D4604461AE032462B
:101F400029462046FFF732FF08B1012070BD25B1B8
:101F5000FEF790FD801BA8420CD954F8440F40F0C6
:101F6000200044F80409202060700020A070207038
:101F7000032070BD20688069C0438006DFD4002044
:101F800070BD70B516460D4604461CE03246294623
:101F90002046FFF70BFF08B1012070BD681C12D06E
:101FA00025B1FEF767FD801BA8420CD954F8440FF9
:101FB00040F0200044F80409202060700020A07048
:101FC0002070032070BD20688069C0438007DDD485
:101FD000002070BD03B581B04FF6FF710091012361
:101FE00002AA8021FEF798FE0EBD000030B5184809
:101FF00087B0C16C41F02001C164C16C01F02001C7
:102000000591C16C41F00201C164C16C01F0020193
:102010000591C16C41F04001C164C06C00F040000A
:102020000590FFF701F80B4D4FF480440022214644
:102030002846FEF71AFD012000210094CDE9010198
:10204000039169462846FEF731FC07B030BD000019
:102050000010024000040048134810B51149016007
:102060001249416000210122C0E90212016141616F
:102070008161C1610162FEF757FD08B1FEF7D4FB33
:1020800000210948FEF7FCFC08B1FEF7CDFB00215A
:102090000548FEF720FD002803D0BDE81040FEF7FC
:1020A000C3BB10BD0058004084000020912970007F
:1020B0000D4810B50B4901604FF4E131416000213A
:1020C00081600C22C160C0E9041281610162416239
:1020D000FFF7A5FD002803D0BDE81040FEF7A4BB24
:1020E00010BD00000080004014000020FEE7704793
:1020F0000907090E002806DA00F00F0000F1E020C1
:1021000080F8141D704700F1E02080F8001470473B
:10211000704700002DE9F041544C05460F46E06839
:102120000026820728684FF0700112D0E26802F0A2
:10213000030282421BD1D0B1E06891FAA1F100F014
:102140007000B1FA81F1C8406968401C88420ED124
:1021500022E0012804D0022805D0032807D108E096
:102160002268920701E022685205002A07DB012657
:1021700078E02268920302D422685203F5E7E2680D
:1021800091FAA1F122F073036A68B1FA81F1521E4B
:102190008A4013430343E360206820F0806020609E
:1021A000FEF768FC804605E0FEF764FCA0EB080043
:1021B00002284ED820680001F6D44FF4FE4017B331
:1021C00090FAA0F0A968012FB0FA80F04FF0FF322A
:1021D00001FA00F129D0686902EB50004FF0C062AB
:1021E00092FAA2F2B2FA82F2904001432069204AA8
:1021F000104001432161206840F080602060FEF7BC
:1022000039FC074627E090FAA0F0A968B0FA80F000
:1022100081404FF0784292FAA2F2E868B2FA82F274
:10222000904001432069134AE2E7286902EB50001D
:102230004FF4C00292FAA2F2B2FA82F29040014345
:1022400020690D4AD4E700BFFEF714FCC01B02282A
:1022500001D9032606E020680001F5D52069A969A7
:10226000084320613046BDE8F081000000100240C4
:10227000FF80FFF9FF80FF07FF809FFF2DE9F041FE
:102280004A4C06468846E0680025810730684FF0D2
:10229000700312D0E16801F0030181421BD1D0B17B
:1022A000E06893FAA3F100F07000B1FA81F1C84040
:1022B0007168401C88420ED122E0012804D0022817
:1022C00005D0032807D108E02168890701E02168CB
:1022D0004905002907DB012564E02168890302D450
:1022E00021684903F5E7E16893FAA3F321F073024B
:1022F0007168B3FA83F3491E99400A430243E260CE
:10230000206820F080502060FEF7B4FB074604E010
:10231000FEF7B0FBC01B02283BD820688000F7D432
:102320004FF4FE4191FAA1F1B068B8F1000FB1FA93
:1023300081F100FA01F019D031694FF0FF3202EB60
:1023400051014FF0C06292FAA2F2B2FA82F29140C9
:1023500008436169164A114008436061206840F0F3
:1023600080502060FEF786FB074614E0F1684FF4CA
:10237000003292FAA2F20909B2FA82F291400843BD
:1023800061690C4AE7E700BFFEF774FBC01B022837
:1023900001D9032506E020688000F5D560697169E0
:1023A000084360612846BDE8F0810000001002404B
:1023B000FF80FFF9FF80FDFFF8B51C4D06460024A5
:1023C000A86DC00002D5FEF737FE0DE0A86D40F005
:1023D0008050A865A86D00F080500090FEF72CFE9C
:1023E000A96D21F08051A965B0F5007F04D0802E41
:1023F00007D94FF003040AE0802E08D9A02E01D897
:1024000004E001D1022402E0702E00D1012408482A
:10241000016821F0070121430160006800F0070016
:10242000A04201D00120F8BD0020F8BD00100240FC
:102430000020024010B520F00300FEF72BF89FEDBE
:10244000081B53EC112BFDF7B0FF9FED071B53EC5E
:10245000112BFDF79CFFFEF73DF800EE100A10BDB2
:102460007644CF7701405F3F000000000000184035
:1024700010B520F00300FEF70DF89FED081B53EC9C
:10248000112BFDF792FF9FED071B53EC112BFDF76E
:10249000DDFEFEF71FF800EE100A10BDD7A3703D59
:1024A0000AF7653FCDCCCCCCCC6C47C0F0B500234F
:1024B0001C4640F231160FE0055D6B4008251F06F3
:1024C00002D586EA430300E05B006D1EDBB215F027
:1024D000FF05F4D1641CE4B28C42EDD3934201D0E9
:1024E0000120F0BD0020F0BD704710B5FEF7D0FC14
:1024F000BDE81040FFF78FBB10B5BAB01020239095
:1025000000246020CDE92A40012129910220CDE953
:102510002D012F912821CDE930103290339023A83E
:10252000FFF7ECF800B1FEE70F2034900320CDE96F
:1025300035043794042134A83894FEF76BFF00B1BA
:10254000FEE7A0200090139415946846FEF77CFDEA
:1025500000B1FEE74FF40070FEF734FD00B1FEE776
:10256000FFF718F84FF47A71B0FBF1F0FFF73FFB7B
:102570000420FFF72FFB00221146501EFEF7F0FC4F
:102580003AB010BD0D48016841F4700101600C487B
:10259000016841F001010160002181600268094B7E
:1025A0001A4002608214C260026822F48022026033
:1025B00081610249C00380390860704788ED00E0FE
:1025C00000100240FFFFF6EA90F82410C90706D079
:1025D00001684A68836A22F400321A434A6090F81C
:1025E0002410890706D501684A68C36A22F480323C
:1025F0001A434A6090F82410490706D501684A68D2
:10260000036B22F480221A434A6090F824100907D1
:1026100006D501684A68436B22F400421A434A60B7
:1026200090F82410C90606D501688A68836B22F4E5
:1026300080521A438A6090F82410890606D50168F2
:102640008A68C36B22F400521A438A6090F82410FF
:10265000490611D501684A68036C22F480121A43B6
:102660004A60016CB1F5801F06D101684A68436C6D
:1026700022F4C0021A434A6090F82410090606D5D5
:1026800001684A68806C22F4002202434A60704765
:10269000F8B500260446C666FEF7ECF90546206844
:1026A00000686FF07E47000708D52B4600224FF4E4
:1026B00000112046009700F065F960B920680068B5
:1026C00040070AD52B4600224FF480012046009790
:1026D00000F058F908B10320F8BD202084F8690003
:1026E00084F86A0084F868600020F8BD2DE9F041A4
:1026F0000446016880682669D4F81CC030436669C6
:102700001025002246EA0C063043924B0E6817460D
:10271000DFF844C206EA0C0606430E6020684168F2
:10272000E66821F44051314341602168A069994233
:1027300001D0266A30438E6826F4306606438E60E8
:10274000864E21688648B1420DD1D0F8880010F03D
:10275000030006D001285AD0022856D0032859D1A8
:1027600057E0012556E07F4EB1420BD1D0F88800EA
:1027700010F00C0047D0042849D0082845D00C2878
:1027800048D146E0784EB1420BD1D0F8880010F025
:10279000300038D010283AD0202836D0302839D10F
:1027A00037E0724EB1420BD1D0F8880010F0C00073
:1027B00029D040282BD0802827D0C0282AD128E033
:1027C0006B4EB1420ED1D0F8880010F440701AD090
:1027D000B0F5807F1BD0B0F5007F16D0B0F5407FFC
:1027E00018D116E0994215D1D0F8880010F4406055
:1027F00009D0B0F5806F0AD0B0F5006F05D0B0F504
:10280000406F07D105E0002504E0022502E0042521
:1028100000E00825574E4FF40040994244D135B1AD
:10282000022D07D0042D07D0082D10D107E0FEF7A8
:10283000B7FE03E0304602E0FEF7E2FE98B36268BE
:1028400002EB4201814202D8B0EB023F01D90127DD
:102850007CE000266DB1022D0ED0042D13D0082D82
:102860001AD00127444AA0F540719142EFD821685F
:102870006BE0FEF795FE08E0500840490FE00023AA
:10288000FDF7B0FCEEE7FEF7BBFE6268010E030247
:10289000500818187141F2E750084FF40001401831
:1028A00046F10001EBE751E0E369834227D1092DAE
:1028B0001ED2DFE805F00508131D161D1D1D1900A9
:1028C000FEF76EFE01E0FEF783FE4100D4F804003F
:1028D00001EB5001B1FBF0F082B20AE028496068D8
:1028E000F6E7FEF78DFEF0E74FF480316068EFE722
:1028F000012722F00F00C2F342010843B7E7092D78
:10290000A5D2DFE805F006090C05120505051C0037
:102910009DE7FEF745FE0AE0FEF75AFE07E0606815
:1029200006EB5002B2FBF0F00EE0FEF769FE014646
:10293000606801EB5001B1FBF0F080B297E762688C
:1029400000EB5200B0FBF2F080B2C8603846BDE840
:10295000F081000000800040F369FFEF0038014083
:10296000001002400044004000480040004C00407D
:10297000005000400024F400FFFC0F00000024F48D
:102980000048E8012DE9F041984617460E460446F6
:10299000069D1DE0681C1BD02DB1FEF76BF8A0EB67
:1029A0000800A84214D92068016821F4D0710160A0
:1029B0002068816821F001018160202084F869008D
:1029C00084F86A00002084F868000320BDE8F081E4
:1029D0002068C06936EA000004D00020B842D9D08F
:1029E0000020F3E70120F9E7FEE700000FB4054BF4
:1029F00010B503A9044A029800F0DEF810BC5DF897
:102A000014FB0000ED3200081000002002E008C8AE
:102A1000121F08C1002AFAD170477047002001E058
:102A200001C1121F002AFBD1704700002DE9FF5F92
:102A300082B00021DDE90430020DDDF840B003432F
:102A400018D044F61050A2F2FF32424315141198E8
:102A500001281FD0A5EB0B00401C5FEA000A4FF0D5
:102A600000064E4FDFF83891B046504615D5CAF1F2
:102A7000000413E0119801244AA3012801D16FEA50
:102A80000B010298119AC0E90031C0E9024206B078
:102A900000F08EB8CBF10000DFE704460021404A89
:102AA000491842EB0450CDE9001012E0E00707D0CE
:102AB00032463B4640464946FDF777FC804689460C
:102AC00032463B4610461946FDF76FFC06460F4658
:102AD0006410002CEAD1DDE90401DDE90023BAF13C
:102AE000000F06DAFDF761FC42464B46FDF75DFC40
:102AF00005E0FDF7E6FD42464B46FDF7E2FD0446E4
:102B00000E460022284BFDF763FE03D84FF0FF303E
:102B1000014607E00022254B20463146FDF796FB93
:102B2000FDF73EFE102409E0002C0ADB0A220023F8
:102B3000FDF758FB039B30321A55641E50EA010220
:102B4000F2D1641C039AC4F111031444119A012AAE
:102B500003D0012208430DD10AE0084304D000202D
:102B60004FF0110B119072E7A3EB0B056D1E0DE0FA
:102B70005B4504DD4FF0000205F1010504E003DAD6
:102B80004FF00002A5F10105002AECD0029811993E
:102B9000C0E90231C0E9004579E7000000001440B7
:102BA0000000F03F300000000000F0430000E03F74
:102BB00030BCBDE8C09F00002DE9FF4F95B09B469B
:102BC0008946064600250FE2252877D100242746AE
:102BD000F84A0121059400E0044316F8013F203B28
:102BE00001FA03F01042F7D130782A2811D06FF0A3
:102BF0002F033078A0F13002092A16D8059A44F044
:102C0000020402EB820203EB42021044761C0590A0
:102C1000EFE759F8042B0592002A03DA504244F4F6
:102C20000054059044F00204761C30782E2816D10A
:102C300016F8010F44F004042A280DD06FF02F027B
:102C40003078A0F13003092B09D807EB870302EB9A
:102C50004303C718761CF3E759F8047B761C3078D9
:102C60006C280FD006DC4C2817D068280DD06A28B5
:102C700014D104E0742810D07A280FD10DE044F468
:102C800000140AE044F4801401E044F44014727823
:102C9000824202D104F58014761C761C30786628B6
:102CA0000BD013DC582877D009DC002875D04528D4
:102CB000F6D04628F4D047281AD19DE118E06328C1
:102CC00035D0642879D0652812D195E1702873D069
:102CD00008DC6728F1D069286FD06E280DD06F28E6
:102CE00006D1B5E073282CD0752875D0782874D01B
:102CF0005A46179990476D1C75E1C4F3025002289B
:102D000009D003280DD0D9F8001004280DD00D608B
:102D100009F1040967E1D9F80010EA17C1E9005286
:102D2000F6E7D9F800100D80F2E70D70F0E719F81A
:102D3000041B8DF8001000208DF80100EA460120E8
:102D400003E059F804AB4FF0FF3061074FF000018A
:102D500002D40DE008F101018846B9420FDA80453E
:102D6000F8DB1AF808100029F4D108E008F1010195
:102D700088468142FADB1AF808100029F6D1059836
:102D80005B46A0EB080721463846179A00F097FAF1
:102D9000284400EB080507E04DE029E10DE01AF8B2
:102DA000010B5A4617999047B8F10108F7D25B46D4
:102DB00021463846179A13E142E00A220092C4F3F2
:102DC00002524FF0000A022A08D059F804CB032A15
:102DD0004FEAEC710AD00DE029E02AE009F1070181
:102DE00021F00702F2E802C1914609E00FFA8CFCDB
:102DF0004FEAEC71042A03D14FFA8CFC4FEAEC71D4
:102E0000002907DA0A460021DCF1000C61EB02011F
:102E10002D2202E0220504D52B228DF80420012268
:102E200003E0E20701D02022F7E7904659E00A21AB
:102E300002E010220DE010214FF0000A00910BE09B
:102E400010224FF0000A44F004040827009203E027
:102E500008224FF0000A0092C4F30252022A05D061
:102E600059F804CB0021032A08D009E009F1070131
:102E700021F00702F2E802C1914605E01FFA8CFC3E
:102E8000042A01D10CF0FF0C4FF00008220728D5CE
:102E9000702806D0009B83F0100353EA0A0305D084
:102EA0000EE040228DF80420012208E05CEA0102D5
:102EB00006D030228DF804208DF8050002229046BD
:102EC000009B83F0080353EA0A030AD15CEA01027B
:102ED00001D1620705D530228DF804204FF001089A
:102EE0007F1E582804D034A003900EA802900DE055
:102EF00036A0F9E753466046009AFDF773F9844619
:102F00000398825C0298401E029002705CEA010005
:102F1000F0D1029806A9081A00F1200A600702D52C
:102F200024F4803400E00127574502DDA7EB0A00B6
:102F300000E0002000EB0A01009005984144401A8F
:102F40000590E00306D45B462146179A059800F0E9
:102F5000B6F90544002706E001A85A46C05D179956
:102F600090476D1C7F1C4745F6DBE0030CD55B46A4
:102F70002146179A059800F0A2F9054404E0302094
:102F80005A46179990476D1C0099481E00900029D9
:102F9000F5DC08E0029802995A460078491C029133
:102FA000179990476D1CBAF10001AAF1010AF1DCF2
:102FB00065E10000092801003031323334353637FD
:102FC0003839616263646566000000003031323375
:102FD0003435363738394142434445460000000015
:102FE00000F05BF90544761C307800287FF4ECADE6
:102FF00019B0284600F04EB9620700D4062709F13F
:10300000070222F0070CFCE80223E14603F0004827
:103010005FEA080C02D00FF2702C0DE05FEA045C4E
:1030200002D50FF2682C07E05FEAC47C02D00FF2F1
:10303000602C01E0AFF2700C4FF0FF3823F000433A
:10304000CDF850C065280CD006DC452809D04628AC
:103050001DD047283DD13DE0662818D067287ED195
:1030600038E00021112F01DB112000E0781CCDE9B0
:10307000000106A90EA8FFF7D9FCDDE90F010E9AA1
:1030800003910021009207F1010A04914DE04FF0F5
:1030900000400097CDE9011006A90EA8FFF7C6FC75
:1030A000DDE90F0203920E9B11990022DDF80CA0BE
:1030B0000093049211B9791C00EB010AB7EB0A00E6
:1030C00004D4C0F1FF3007F1010A0490AAEB070015
:1030D000019044E0012F00DA01270021112F01DDCA
:1030E000112000E03846CDE9000106A90EA8FFF73F
:1030F0009DFCDDE90F010E9A0391002104910092DD
:10310000BA4621070CD40399514500DA8A46BAF130
:10311000010F05DD009AAAF10101515C302908D0A8
:10312000B84202DA10F1040F06DA0121CDE90110EC
:1031300015E0AAF10101E9E7002805DC0499014442
:103140000491AAEB000102E0411C514500DD8A46D2
:103150000499401A401C01904FF000400290200753
:1031600004D40198504501DBCDF8048000208DF88F
:103170004F0002980DF14F07B0F1004F25D02B20E2
:103180000E9002984FF0020800280CDA404202909C
:103190002D200E9007E00A210298FDF7B7F9303193
:1031A000029007F8011DB8F10001A8F10108F2DC56
:1031B00002980028EFD1791E0E980870307800F040
:1031C000200040F0450007F8020D12A8C01B00F1D6
:1031D00007081498007800B1012000EB0A0101985B
:1031E00001EBE07105984144401A401E0590E00350
:1031F00006D45B462146179A059800F060F805440E
:103200001498007818B15A46179990476D1CE0033E
:1032100024D55B462146179A059800F050F80544DE
:103220001CE00498002807DBDDE90301884203DD88
:103230000098405C179901E0179930205A46904752
:10324000049805F10105401C04900198401E01906E
:1032500004D12E205A46179990476D1CBAF10001EF
:10326000AAF1010ADDDC05E017F8010B5A461799AF
:1032700090476D1CB8F10001A8F10108F4DC5B4631
:103280002146179A0598ABE62D0000002B000000A0
:103290002000000030BCBDE8C08F2DE9F04104469D
:1032A00000251E461746880404D405E03946202030
:1032B000B0476D1C641EF9D52846BDE8F0812DE9A4
:1032C000F041044600251E469046C80301D530272C
:1032D00000E02027880404D505E041463846B04781
:1032E0006D1C641EF9D52846BDE8F08113B54FF674
:1032F000FF73012269460248FEF7ECFC00981CBDF2
:103300001400002008B5FDF7CBFDFFF7F5F8FEF738
:103310006DFEFEF7A1FEFEF7CBFEFDF7ABFB164CF4
:10332000206016A0FFF762FB4FF47A75FDF7A2FB51
:103330002168401AA842F9D3FDF798FA10EE100A56
:10334000FDF7B5F841EC100B18A053EC102BFFF76C
:103350004DFBFDF76BFA10EE100AFDF7A8F841ECF3
:10336000100B19A0009053EC102B18A0FFF73EFB98
:10337000FDF780FB2060D9E70000002053544D3357
:10338000324C3439365A475F53485432305F5445D3
:103390005354494E475F4F4E5F4841524457415244
:1033A000455F4932432E2E2E0D0A000053485432F9
:1033B000305F54656D70657261747572653D25325C
:1033C0002E3066A1E343200025000000534854320C
:1033D000305F48756D69646974793D25322E3066B9
:1033E00025730D0A0000000000000000000000002E
:1033F0000102030406070809A0860100400D03002E
:10340000801A060000350C0040420F0080841E0028
:1034100000093D0000127A000024F40000366E011D
:103420000048E801006CDC02000000000102030417
:103430005034000800000020140000000C2A00088E
:103440006434000814000020BC0400001C2A00089A
:1034500000000000000000000000000000093D0026
:043460000000000068
:04000005080001AD41
:00000001FF
